00010021NEREU BARCELOS                1002C00000245030
00010022LARISSA NOVAES                1001P00000087540
00010023CLOVIS PADILHA                1003C00000110000
00010024RAFAELA DINIZ                 1001X00000050000
00010025BRUNO TAVARES                 1004P00000325075
00010026MILENA FALCAO                 1002C00000022010
