00010027GUSTAVO RIBEIRO               1003P00000064000
00010028SABRINA MORAIS                1004C00000180090
00010029ENZO TEIXEIRA                 1001P00000030025
00010030CAMILA BARROS                 1002Z00000012500
00010031RENATO MOURA                  1003C00000456000
00010032BIANCA CASTRO                 1004P00000200000
